:020000020000FC
:1000000038C0189507C01895189518950CC0189504
:10001000189518958FB6B39B04C06894D3F890E0F8
:100020009BBF8FBE18958FB68F926894D1F8789445
:100030000395011510F4C29A01C0C298021510F47C
:10004000C19A01C0C198031510F4C09A01C0C098AC
:10005000041510F4C49A01C0C498E894B399689444
:10006000D0F8002311F46894D2F8F8948F908FBEE2
:1000700018959FE99DBF00E097E197BB98E095BB7D
:1000800090E29BBF92E09FBD91E893BF94E696BF3C
:1000900094E099BF789493E19EBBE09A9DB391BFA1
:1000A00090E8192E90E4292E90E2392E90E1492E05
:1000B000D2FA5EF45395533130F05527239525300D
:1000C00010F098E8390EE894D2F8B399F1CF90E1A6
:1000D000192E90E1292E90E1392E90E1492E91E0E0
:1000E0009EBBE09A4DB3D2FA8EF45395533160F033
:1000F00055272395241740F090E0192E90E0292EE3
:1001000090E0392E90E0492EE894D2F8D3FA5EF7C9
:10011000E894D4F8E894D3F8F8943CE33A95A9F13C
:10012000B399FCCFBB246894D5F84DD0A092600061
:1001300008F42BC0BA0C47D0A092610008F425C087
:10014000BA0C41D0A092620008F41FC0BA0C3BD098
:10015000A092630008F419C0BA0C35D0A0926400D4
:1001600008F413C0BA0C2FD0A092650008F40DC09B
:10017000BA0C29D008F409C0B094BA14D9F456D0F6
:1001800090E29ABF90E29BBFAECF789498E0B92EF0
:1001900038E0B39909C0D1FAE6F7E894D1F898E0CD
:1001A000B92E3A95B1F706C0D1FA96F7E894D1F88E
:1001B000BA9471F79FEF192EF89490E29ABF90E2EB
:1001C0009BBF789490CF03D008F001D00895F894A5
:1001D00015E038E7B39905C03A95E1F708947894AB
:1001E000089594E092BFD5FA86F4E894D5F8335296
:1001F00008F43327313108F030E130936C0092E09D
:10020000390F3EBBE09A3DB336BF78940000E894C6
:10021000D1F8D1FAF6F7E894D1F8D0FA08940EF0B4
:100220008894A7941A95A9F7AA1C089530E03EBBBC
:10023000E09ABDB2309160003B1511F03F3F81F470
:10024000222730916100313211F40BD009C03431D2
:1002500019F44091620004C03A3511F40BD000C08B
:1002600008951090620020906300309064004090E8
:10027000650008953091620090916A009317A1F48F
:1002800090916B00939590936B00933009F00895D3
:10029000E199FECF90E09CBB90E09EBB3DBBE29A13
:1002A000E19AE199FECF3327992790936B00309321
:0402B0006A00089543
:00000001FF
