:020000020000FC
:1000000018C0189518950FC018951895189518953B
:100010001895189518951895189518951895189578
:100020001895189518952FB6689440F813952FBE1B
:10003000189504E00EBF0FE50DBF9FEF97BB90E052
:1000400094BB9CEF91BB9AE095BD96E293BD90E87E
:1000500099BF90E090BD97E099B998E19AB996E878
:1000600090BD90EC97B997E896B910E09DE0592EB5
:100070005F9B3BC09CB19034B1F4B0E0A0E69FE33D
:1000800035D038D09D9336D09D9334D09D9332D0C7
:100090009D9330D09D932ED09D93B0E0A0E66AD082
:1000A0009BE224D022C09A3249F49FE31FD022D091
:1000B0009F739395592E9BE219D017C09D3371F40D
:1000C0009FE314D017D09F70906C97B9369A3699E9
:1000D000FECF94B10BD095B109D007C0943519F477
:1000E0009BE204D002C09DE201D0C2CF5D9BFECF57
:1000F0009CB908955F9BFECF9CB10895979890E0BE
:1001000094BDE89440F890E898BF789440FAF6F7E8
:10011000E89440F8979A40FAF6F7E89440F840FAE5
:10012000F6F7E89440F840FAF6F7E89440F840FA19
:10013000F6F7E89440F8089502D001D00895979812
:1001400040FAF6F7E89440F824E0979510F4979871
:1001500001C0979A40FAF6F7E89440F82A95A9F773
:10016000979A40FAF6F7E89440F840FAF6F7E894E0
:1001700040F8089546E03324C1DF9D91390EDCDF5D
:0E0180004A95D9F73094932DD7DFF89408955F
:00000001FF
